{
  "_format": "hh-sol-artifact-1",
  "contractName": "TokenGen",
  "sourceName": "contracts/TokenGen.sol",
  "abi": [
    {
      "inputs": [],
      "stateMutability": "nonpayable",
      "type": "constructor"
    },
    {
      "anonymous": false,
      "inputs": [
        {
          "indexed": true,
          "internalType": "address",
          "name": "owner",
          "type": "address"
        },
        {
          "indexed": true,
          "internalType": "address",
          "name": "approved",
          "type": "address"
        },
        {
          "indexed": true,
          "internalType": "uint256",
          "name": "tokenId",
          "type": "uint256"
        }
      ],
      "name": "Approval",
      "type": "event"
    },
    {
      "anonymous": false,
      "inputs": [
        {
          "indexed": true,
          "internalType": "address",
          "name": "owner",
          "type": "address"
        },
        {
          "indexed": true,
          "internalType": "address",
          "name": "operator",
          "type": "address"
        },
        {
          "indexed": false,
          "internalType": "bool",
          "name": "approved",
          "type": "bool"
        }
      ],
      "name": "ApprovalForAll",
      "type": "event"
    },
    {
      "anonymous": false,
      "inputs": [
        {
          "indexed": false,
          "internalType": "uint8",
          "name": "version",
          "type": "uint8"
        }
      ],
      "name": "Initialized",
      "type": "event"
    },
    {
      "anonymous": false,
      "inputs": [
        {
          "indexed": true,
          "internalType": "address",
          "name": "previousOwner",
          "type": "address"
        },
        {
          "indexed": true,
          "internalType": "address",
          "name": "newOwner",
          "type": "address"
        }
      ],
      "name": "OwnershipTransferred",
      "type": "event"
    },
    {
      "anonymous": false,
      "inputs": [
        {
          "indexed": true,
          "internalType": "address",
          "name": "from",
          "type": "address"
        },
        {
          "indexed": true,
          "internalType": "address",
          "name": "to",
          "type": "address"
        },
        {
          "indexed": true,
          "internalType": "uint256",
          "name": "tokenId",
          "type": "uint256"
        }
      ],
      "name": "Transfer",
      "type": "event"
    },
    {
      "inputs": [
        {
          "internalType": "address",
          "name": "to",
          "type": "address"
        },
        {
          "internalType": "uint256",
          "name": "tokenId",
          "type": "uint256"
        }
      ],
      "name": "approve",
      "outputs": [],
      "stateMutability": "nonpayable",
      "type": "function"
    },
    {
      "inputs": [
        {
          "internalType": "address",
          "name": "owner",
          "type": "address"
        }
      ],
      "name": "balanceOf",
      "outputs": [
        {
          "internalType": "uint256",
          "name": "",
          "type": "uint256"
        }
      ],
      "stateMutability": "view",
      "type": "function"
    },
    {
      "inputs": [
        {
          "internalType": "uint256",
          "name": "tokenId",
          "type": "uint256"
        }
      ],
      "name": "getApproved",
      "outputs": [
        {
          "internalType": "address",
          "name": "",
          "type": "address"
        }
      ],
      "stateMutability": "view",
      "type": "function"
    },
    {
      "inputs": [],
      "name": "initialize",
      "outputs": [],
      "stateMutability": "nonpayable",
      "type": "function"
    },
    {
      "inputs": [
        {
          "internalType": "address",
          "name": "owner",
          "type": "address"
        },
        {
          "internalType": "address",
          "name": "operator",
          "type": "address"
        }
      ],
      "name": "isApprovedForAll",
      "outputs": [
        {
          "internalType": "bool",
          "name": "",
          "type": "bool"
        }
      ],
      "stateMutability": "view",
      "type": "function"
    },
    {
      "inputs": [],
      "name": "name",
      "outputs": [
        {
          "internalType": "string",
          "name": "",
          "type": "string"
        }
      ],
      "stateMutability": "view",
      "type": "function"
    },
    {
      "inputs": [],
      "name": "numminted",
      "outputs": [
        {
          "internalType": "uint256",
          "name": "",
          "type": "uint256"
        }
      ],
      "stateMutability": "view",
      "type": "function"
    },
    {
      "inputs": [],
      "name": "owner",
      "outputs": [
        {
          "internalType": "address",
          "name": "",
          "type": "address"
        }
      ],
      "stateMutability": "view",
      "type": "function"
    },
    {
      "inputs": [
        {
          "internalType": "uint256",
          "name": "tokenId",
          "type": "uint256"
        }
      ],
      "name": "ownerOf",
      "outputs": [
        {
          "internalType": "address",
          "name": "",
          "type": "address"
        }
      ],
      "stateMutability": "view",
      "type": "function"
    },
    {
      "inputs": [],
      "name": "renounceOwnership",
      "outputs": [],
      "stateMutability": "nonpayable",
      "type": "function"
    },
    {
      "inputs": [
        {
          "internalType": "address",
          "name": "to",
          "type": "address"
        }
      ],
      "name": "safeMint",
      "outputs": [],
      "stateMutability": "nonpayable",
      "type": "function"
    },
    {
      "inputs": [
        {
          "internalType": "address",
          "name": "from",
          "type": "address"
        },
        {
          "internalType": "address",
          "name": "to",
          "type": "address"
        },
        {
          "internalType": "uint256",
          "name": "tokenId",
          "type": "uint256"
        }
      ],
      "name": "safeTransferFrom",
      "outputs": [],
      "stateMutability": "nonpayable",
      "type": "function"
    },
    {
      "inputs": [
        {
          "internalType": "address",
          "name": "from",
          "type": "address"
        },
        {
          "internalType": "address",
          "name": "to",
          "type": "address"
        },
        {
          "internalType": "uint256",
          "name": "tokenId",
          "type": "uint256"
        },
        {
          "internalType": "bytes",
          "name": "data",
          "type": "bytes"
        }
      ],
      "name": "safeTransferFrom",
      "outputs": [],
      "stateMutability": "nonpayable",
      "type": "function"
    },
    {
      "inputs": [
        {
          "internalType": "address",
          "name": "operator",
          "type": "address"
        },
        {
          "internalType": "bool",
          "name": "approved",
          "type": "bool"
        }
      ],
      "name": "setApprovalForAll",
      "outputs": [],
      "stateMutability": "nonpayable",
      "type": "function"
    },
    {
      "inputs": [
        {
          "internalType": "bytes4",
          "name": "interfaceId",
          "type": "bytes4"
        }
      ],
      "name": "supportsInterface",
      "outputs": [
        {
          "internalType": "bool",
          "name": "",
          "type": "bool"
        }
      ],
      "stateMutability": "view",
      "type": "function"
    },
    {
      "inputs": [],
      "name": "symbol",
      "outputs": [
        {
          "internalType": "string",
          "name": "",
          "type": "string"
        }
      ],
      "stateMutability": "view",
      "type": "function"
    },
    {
      "inputs": [
        {
          "internalType": "uint256",
          "name": "tokenId",
          "type": "uint256"
        }
      ],
      "name": "tokenURI",
      "outputs": [
        {
          "internalType": "string",
          "name": "",
          "type": "string"
        }
      ],
      "stateMutability": "view",
      "type": "function"
    },
    {
      "inputs": [
        {
          "internalType": "address",
          "name": "from",
          "type": "address"
        },
        {
          "internalType": "address",
          "name": "to",
          "type": "address"
        },
        {
          "internalType": "uint256",
          "name": "tokenId",
          "type": "uint256"
        }
      ],
      "name": "transferFrom",
      "outputs": [],
      "stateMutability": "nonpayable",
      "type": "function"
    },
    {
      "inputs": [
        {
          "internalType": "address",
          "name": "newOwner",
          "type": "address"
        }
      ],
      "name": "transferOwnership",
      "outputs": [],
      "stateMutability": "nonpayable",
      "type": "function"
    }
  ],
  "bytecode": "0x60806040523480156200001157600080fd5b50620000226200002860201b60201c565b620009bb565b60008060019054906101000a900460ff161590508080156200005a5750600160008054906101000a900460ff1660ff16105b8062000096575062000077306200020160201b62000cdc1760201c565b158015620000955750600160008054906101000a900460ff1660ff16145b5b620000d8576040517f08c379a0000000000000000000000000000000000000000000000000000000008152600401620000cf9062000533565b60405180910390fd5b60016000806101000a81548160ff021916908360ff160217905550801562000116576001600060016101000a81548160ff0219169083151502179055505b620001926040518060400160405280600781526020017f4d79546f6b656e000000000000000000000000000000000000000000000000008152506040518060400160405280600381526020017f4d544b00000000000000000000000000000000000000000000000000000000008152506200022460201b60201c565b620001a26200028c60201b60201c565b8015620001fe5760008060016101000a81548160ff0219169083151502179055507f7f26b83ff96e1f2b6a682f133852f6798a09c465da95921460cefb38474024986001604051620001f59190620005af565b60405180910390a15b50565b6000808273ffffffffffffffffffffffffffffffffffffffff163b119050919050565b600060019054906101000a900460ff1662000276576040517f08c379a00000000000000000000000000000000000000000000000000000000081526004016200026d9062000642565b60405180910390fd5b620002888282620002f060201b60201c565b5050565b600060019054906101000a900460ff16620002de576040517f08c379a0000000000000000000000000000000000000000000000000000000008152600401620002d59062000642565b60405180910390fd5b620002ee6200036a60201b60201c565b565b600060019054906101000a900460ff1662000342576040517f08c379a0000000000000000000000000000000000000000000000000000000008152600401620003399062000642565b60405180910390fd5b8160659081620003539190620008d4565b508060669081620003659190620008d4565b505050565b600060019054906101000a900460ff16620003bc576040517f08c379a0000000000000000000000000000000000000000000000000000000008152600401620003b39062000642565b60405180910390fd5b620003dc620003d0620003de60201b60201c565b620003e660201b60201c565b565b600033905090565b6000609760009054906101000a900473ffffffffffffffffffffffffffffffffffffffff16905081609760006101000a81548173ffffffffffffffffffffffffffffffffffffffff021916908373ffffffffffffffffffffffffffffffffffffffff1602179055508173ffffffffffffffffffffffffffffffffffffffff168173ffffffffffffffffffffffffffffffffffffffff167f8be0079c531659141344cd1fd0a4f28419497f9722a3daafe3b4186f6b6457e060405160405180910390a35050565b600082825260208201905092915050565b7f496e697469616c697a61626c653a20636f6e747261637420697320616c72656160008201527f647920696e697469616c697a6564000000000000000000000000000000000000602082015250565b60006200051b602e83620004ac565b91506200052882620004bd565b604082019050919050565b600060208201905081810360008301526200054e816200050c565b9050919050565b6000819050919050565b600060ff82169050919050565b6000819050919050565b600062000597620005916200058b8462000555565b6200056c565b6200055f565b9050919050565b620005a98162000576565b82525050565b6000602082019050620005c660008301846200059e565b92915050565b7f496e697469616c697a61626c653a20636f6e7472616374206973206e6f74206960008201527f6e697469616c697a696e67000000000000000000000000000000000000000000602082015250565b60006200062a602b83620004ac565b91506200063782620005cc565b604082019050919050565b600060208201905081810360008301526200065d816200061b565b9050919050565b600081519050919050565b7f4e487b7100000000000000000000000000000000000000000000000000000000600052604160045260246000fd5b7f4e487b7100000000000000000000000000000000000000000000000000000000600052602260045260246000fd5b60006002820490506001821680620006e657607f821691505b602082108103620006fc57620006fb6200069e565b5b50919050565b60008190508160005260206000209050919050565b60006020601f8301049050919050565b600082821b905092915050565b600060088302620007667fffffffffffffffffffffffffffffffffffffffffffffffffffffffffffffffff8262000727565b62000772868362000727565b95508019841693508086168417925050509392505050565b6000819050919050565b6000620007b5620007af620007a9846200078a565b6200056c565b6200078a565b9050919050565b6000819050919050565b620007d18362000794565b620007e9620007e082620007bc565b84845462000734565b825550505050565b600090565b62000800620007f1565b6200080d818484620007c6565b505050565b5b81811015620008355762000829600082620007f6565b60018101905062000813565b5050565b601f82111562000884576200084e8162000702565b620008598462000717565b8101602085101562000869578190505b62000881620008788562000717565b83018262000812565b50505b505050565b600082821c905092915050565b6000620008a96000198460080262000889565b1980831691505092915050565b6000620008c4838362000896565b9150826002028217905092915050565b620008df8262000664565b67ffffffffffffffff811115620008fb57620008fa6200066f565b5b620009078254620006cd565b6200091482828562000839565b600060209050601f8311600181146200094c576000841562000937578287015190505b620009438582620008b6565b865550620009b3565b601f1984166200095c8662000702565b60005b8281101562000986578489015182556001820191506020850194506020810190506200095f565b86831015620009a65784890151620009a2601f89168262000896565b8355505b6001600288020188555050505b505050505050565b61300580620009cb6000396000f3fe608060405234801561001057600080fd5b50600436106101215760003560e01c806370a08231116100ad578063a22cb46511610071578063a22cb465146102e2578063b88d4fde146102fe578063c87b56dd1461031a578063e985e9c51461034a578063f2fde38b1461037a57610121565b806370a0823114610262578063715018a6146102925780638129fc1c1461029c5780638da5cb5b146102a657806395d89b41146102c457610121565b80630f4242cb116100f45780630f4242cb146101c057806323b872dd146101de57806340d097c3146101fa57806342842e0e146102165780636352211e1461023257610121565b806301ffc9a71461012657806306fdde0314610156578063081812fc14610174578063095ea7b3146101a4575b600080fd5b610140600480360381019061013b9190611dfe565b610396565b60405161014d9190611e46565b60405180910390f35b61015e610478565b60405161016b9190611ef1565b60405180910390f35b61018e60048036038101906101899190611f49565b61050a565b60405161019b9190611fb7565b60405180910390f35b6101be60048036038101906101b99190611ffe565b610550565b005b6101c8610667565b6040516101d5919061204d565b60405180910390f35b6101f860048036038101906101f39190612068565b610678565b005b610214600480360381019061020f91906120bb565b6106d8565b005b610230600480360381019061022b9190612068565b610706565b005b61024c60048036038101906102479190611f49565b610726565b6040516102599190611fb7565b60405180910390f35b61027c600480360381019061027791906120bb565b6107ac565b604051610289919061204d565b60405180910390f35b61029a610863565b005b6102a4610877565b005b6102ae610a29565b6040516102bb9190611fb7565b60405180910390f35b6102cc610a53565b6040516102d99190611ef1565b60405180910390f35b6102fc60048036038101906102f79190612114565b610ae5565b005b61031860048036038101906103139190612289565b610afb565b005b610334600480360381019061032f9190611f49565b610b5d565b6040516103419190611ef1565b60405180910390f35b610364600480360381019061035f919061230c565b610bc5565b6040516103719190611e46565b60405180910390f35b610394600480360381019061038f91906120bb565b610c59565b005b60007f80ac58cd000000000000000000000000000000000000000000000000000000007bffffffffffffffffffffffffffffffffffffffffffffffffffffffff1916827bffffffffffffffffffffffffffffffffffffffffffffffffffffffff1916148061046157507f5b5e139f000000000000000000000000000000000000000000000000000000007bffffffffffffffffffffffffffffffffffffffffffffffffffffffff1916827bffffffffffffffffffffffffffffffffffffffffffffffffffffffff1916145b80610471575061047082610cff565b5b9050919050565b6060606580546104879061237b565b80601f01602080910402602001604051908101604052809291908181526020018280546104b39061237b565b80156105005780601f106104d557610100808354040283529160200191610500565b820191906000526020600020905b8154815290600101906020018083116104e357829003601f168201915b5050505050905090565b600061051582610d69565b6069600083815260200190815260200160002060009054906101000a900473ffffffffffffffffffffffffffffffffffffffff169050919050565b600061055b82610726565b90508073ffffffffffffffffffffffffffffffffffffffff168373ffffffffffffffffffffffffffffffffffffffff16036105cb576040517f08c379a00000000000000000000000000000000000000000000000000000000081526004016105c29061241e565b60405180910390fd5b8073ffffffffffffffffffffffffffffffffffffffff166105ea610db4565b73ffffffffffffffffffffffffffffffffffffffff161480610619575061061881610613610db4565b610bc5565b5b610658576040517f08c379a000000000000000000000000000000000000000000000000000000000815260040161064f906124b0565b60405180910390fd5b6106628383610dbc565b505050565b600061067360c9610e75565b905090565b610689610683610db4565b82610e83565b6106c8576040517f08c379a00000000000000000000000000000000000000000000000000000000081526004016106bf90612542565b60405180910390fd5b6106d3838383610f18565b505050565b6106e061120d565b60006106ec60c9610e75565b90506106f860c961128b565b61070282826112a1565b5050565b61072183838360405180602001604052806000815250610afb565b505050565b600080610732836112bf565b9050600073ffffffffffffffffffffffffffffffffffffffff168173ffffffffffffffffffffffffffffffffffffffff16036107a3576040517f08c379a000000000000000000000000000000000000000000000000000000000815260040161079a906125ae565b60405180910390fd5b80915050919050565b60008073ffffffffffffffffffffffffffffffffffffffff168273ffffffffffffffffffffffffffffffffffffffff160361081c576040517f08c379a000000000000000000000000000000000000000000000000000000000815260040161081390612640565b60405180910390fd5b606860008373ffffffffffffffffffffffffffffffffffffffff1673ffffffffffffffffffffffffffffffffffffffff168152602001908152602001600020549050919050565b61086b61120d565b61087560006112fc565b565b60008060019054906101000a900460ff161590508080156108a85750600160008054906101000a900460ff1660ff16105b806108d557506108b730610cdc565b1580156108d45750600160008054906101000a900460ff1660ff16145b5b610914576040517f08c379a000000000000000000000000000000000000000000000000000000000815260040161090b906126d2565b60405180910390fd5b60016000806101000a81548160ff021916908360ff1602179055508015610951576001600060016101000a81548160ff0219169083151502179055505b6109c56040518060400160405280600781526020017f4d79546f6b656e000000000000000000000000000000000000000000000000008152506040518060400160405280600381526020017f4d544b00000000000000000000000000000000000000000000000000000000008152506113c2565b6109cd61141f565b8015610a265760008060016101000a81548160ff0219169083151502179055507f7f26b83ff96e1f2b6a682f133852f6798a09c465da95921460cefb38474024986001604051610a1d9190612744565b60405180910390a15b50565b6000609760009054906101000a900473ffffffffffffffffffffffffffffffffffffffff16905090565b606060668054610a629061237b565b80601f0160208091040260200160405190810160405280929190818152602001828054610a8e9061237b565b8015610adb5780601f10610ab057610100808354040283529160200191610adb565b820191906000526020600020905b815481529060010190602001808311610abe57829003601f168201915b5050505050905090565b610af7610af0610db4565b8383611478565b5050565b610b0c610b06610db4565b83610e83565b610b4b576040517f08c379a0000000000000000000000000000000000000000000000000000000008152600401610b4290612542565b60405180910390fd5b610b57848484846115e4565b50505050565b6060610b6882610d69565b6000610b72611640565b90506000815111610b925760405180602001604052806000815250610bbd565b80610b9c84611657565b604051602001610bad92919061279b565b6040516020818303038152906040525b915050919050565b6000606a60008473ffffffffffffffffffffffffffffffffffffffff1673ffffffffffffffffffffffffffffffffffffffff16815260200190815260200160002060008373ffffffffffffffffffffffffffffffffffffffff1673ffffffffffffffffffffffffffffffffffffffff16815260200190815260200160002060009054906101000a900460ff16905092915050565b610c6161120d565b600073ffffffffffffffffffffffffffffffffffffffff168173ffffffffffffffffffffffffffffffffffffffff1603610cd0576040517f08c379a0000000000000000000000000000000000000000000000000000000008152600401610cc790612831565b60405180910390fd5b610cd9816112fc565b50565b6000808273ffffffffffffffffffffffffffffffffffffffff163b119050919050565b60007f01ffc9a7000000000000000000000000000000000000000000000000000000007bffffffffffffffffffffffffffffffffffffffffffffffffffffffff1916827bffffffffffffffffffffffffffffffffffffffffffffffffffffffff1916149050919050565b610d7281611725565b610db1576040517f08c379a0000000000000000000000000000000000000000000000000000000008152600401610da8906125ae565b60405180910390fd5b50565b600033905090565b816069600083815260200190815260200160002060006101000a81548173ffffffffffffffffffffffffffffffffffffffff021916908373ffffffffffffffffffffffffffffffffffffffff160217905550808273ffffffffffffffffffffffffffffffffffffffff16610e2f83610726565b73ffffffffffffffffffffffffffffffffffffffff167f8c5be1e5ebec7d5bd14f71427d1e84f3dd0314c0f7b2291e5b200ac8c7c3b92560405160405180910390a45050565b600081600001549050919050565b600080610e8f83610726565b90508073ffffffffffffffffffffffffffffffffffffffff168473ffffffffffffffffffffffffffffffffffffffff161480610ed15750610ed08185610bc5565b5b80610f0f57508373ffffffffffffffffffffffffffffffffffffffff16610ef78461050a565b73ffffffffffffffffffffffffffffffffffffffff16145b91505092915050565b8273ffffffffffffffffffffffffffffffffffffffff16610f3882610726565b73ffffffffffffffffffffffffffffffffffffffff1614610f8e576040517f08c379a0000000000000000000000000000000000000000000000000000000008152600401610f85906128c3565b60405180910390fd5b600073ffffffffffffffffffffffffffffffffffffffff168273ffffffffffffffffffffffffffffffffffffffff1603610ffd576040517f08c379a0000000000000000000000000000000000000000000000000000000008152600401610ff490612955565b60405180910390fd5b611008838383611766565b8273ffffffffffffffffffffffffffffffffffffffff1661102882610726565b73ffffffffffffffffffffffffffffffffffffffff161461107e576040517f08c379a0000000000000000000000000000000000000000000000000000000008152600401611075906128c3565b60405180910390fd5b6069600082815260200190815260200160002060006101000a81549073ffffffffffffffffffffffffffffffffffffffff02191690556001606860008573ffffffffffffffffffffffffffffffffffffffff1673ffffffffffffffffffffffffffffffffffffffff168152602001908152602001600020600082825403925050819055506001606860008473ffffffffffffffffffffffffffffffffffffffff1673ffffffffffffffffffffffffffffffffffffffff16815260200190815260200160002060008282540192505081905550816067600083815260200190815260200160002060006101000a81548173ffffffffffffffffffffffffffffffffffffffff021916908373ffffffffffffffffffffffffffffffffffffffff160217905550808273ffffffffffffffffffffffffffffffffffffffff168473ffffffffffffffffffffffffffffffffffffffff167fddf252ad1be2c89b69c2b068fc378daa952ba7f163c4a11628f55a4df523b3ef60405160405180910390a461120883838361176b565b505050565b611215610db4565b73ffffffffffffffffffffffffffffffffffffffff16611233610a29565b73ffffffffffffffffffffffffffffffffffffffff1614611289576040517f08c379a0000000000000000000000000000000000000000000000000000000008152600401611280906129c1565b60405180910390fd5b565b6001816000016000828254019250508190555050565b6112bb828260405180602001604052806000815250611770565b5050565b60006067600083815260200190815260200160002060009054906101000a900473ffffffffffffffffffffffffffffffffffffffff169050919050565b6000609760009054906101000a900473ffffffffffffffffffffffffffffffffffffffff16905081609760006101000a81548173ffffffffffffffffffffffffffffffffffffffff021916908373ffffffffffffffffffffffffffffffffffffffff1602179055508173ffffffffffffffffffffffffffffffffffffffff168173ffffffffffffffffffffffffffffffffffffffff167f8be0079c531659141344cd1fd0a4f28419497f9722a3daafe3b4186f6b6457e060405160405180910390a35050565b600060019054906101000a900460ff16611411576040517f08c379a000000000000000000000000000000000000000000000000000000000815260040161140890612a53565b60405180910390fd5b61141b82826117cb565b5050565b600060019054906101000a900460ff1661146e576040517f08c379a000000000000000000000000000000000000000000000000000000000815260040161146590612a53565b60405180910390fd5b61147661183e565b565b8173ffffffffffffffffffffffffffffffffffffffff168373ffffffffffffffffffffffffffffffffffffffff16036114e6576040517f08c379a00000000000000000000000000000000000000000000000000000000081526004016114dd90612abf565b60405180910390fd5b80606a60008573ffffffffffffffffffffffffffffffffffffffff1673ffffffffffffffffffffffffffffffffffffffff16815260200190815260200160002060008473ffffffffffffffffffffffffffffffffffffffff1673ffffffffffffffffffffffffffffffffffffffff16815260200190815260200160002060006101000a81548160ff0219169083151502179055508173ffffffffffffffffffffffffffffffffffffffff168373ffffffffffffffffffffffffffffffffffffffff167f17307eab39ab6107e8899845ad3d59bd9653f200f220920489ca2b5937696c31836040516115d79190611e46565b60405180910390a3505050565b6115ef848484610f18565b6115fb8484848461189f565b61163a576040517f08c379a000000000000000000000000000000000000000000000000000000000815260040161163190612b51565b60405180910390fd5b50505050565b606060405180602001604052806000815250905090565b60606000600161166684611a26565b01905060008167ffffffffffffffff8111156116855761168461215e565b5b6040519080825280601f01601f1916602001820160405280156116b75781602001600182028036833780820191505090505b509050600082602001820190505b60011561171a578080600190039150507f3031323334353637383961626364656600000000000000000000000000000000600a86061a8153600a858161170e5761170d612b71565b5b049450600085036116c5575b819350505050919050565b60008073ffffffffffffffffffffffffffffffffffffffff16611747836112bf565b73ffffffffffffffffffffffffffffffffffffffff1614159050919050565b505050565b505050565b61177a8383611b79565b611787600084848461189f565b6117c6576040517f08c379a00000000000000000000000000000000000000000000000000000000081526004016117bd90612b51565b60405180910390fd5b505050565b600060019054906101000a900460ff1661181a576040517f08c379a000000000000000000000000000000000000000000000000000000000815260040161181190612a53565b60405180910390fd5b81606590816118299190612d42565b5080606690816118399190612d42565b505050565b600060019054906101000a900460ff1661188d576040517f08c379a000000000000000000000000000000000000000000000000000000000815260040161188490612a53565b60405180910390fd5b61189d611898610db4565b6112fc565b565b60006118c08473ffffffffffffffffffffffffffffffffffffffff16610cdc565b15611a19578373ffffffffffffffffffffffffffffffffffffffff1663150b7a026118e9610db4565b8786866040518563ffffffff1660e01b815260040161190b9493929190612e69565b6020604051808303816000875af192505050801561194757506040513d601f19601f820116820180604052508101906119449190612eca565b60015b6119c9573d8060008114611977576040519150601f19603f3d011682016040523d82523d6000602084013e61197c565b606091505b5060008151036119c1576040517f08c379a00000000000000000000000000000000000000000000000000000000081526004016119b890612b51565b60405180910390fd5b805181602001fd5b63150b7a0260e01b7bffffffffffffffffffffffffffffffffffffffffffffffffffffffff1916817bffffffffffffffffffffffffffffffffffffffffffffffffffffffff191614915050611a1e565b600190505b949350505050565b600080600090507a184f03e93ff9f4daa797ed6e38ed64bf6a1f0100000000000000008310611a84577a184f03e93ff9f4daa797ed6e38ed64bf6a1f0100000000000000008381611a7a57611a79612b71565b5b0492506040810190505b6d04ee2d6d415b85acef81000000008310611ac1576d04ee2d6d415b85acef81000000008381611ab757611ab6612b71565b5b0492506020810190505b662386f26fc100008310611af057662386f26fc100008381611ae657611ae5612b71565b5b0492506010810190505b6305f5e1008310611b19576305f5e1008381611b0f57611b0e612b71565b5b0492506008810190505b6127108310611b3e576127108381611b3457611b33612b71565b5b0492506004810190505b60648310611b615760648381611b5757611b56612b71565b5b0492506002810190505b600a8310611b70576001810190505b80915050919050565b600073ffffffffffffffffffffffffffffffffffffffff168273ffffffffffffffffffffffffffffffffffffffff1603611be8576040517f08c379a0000000000000000000000000000000000000000000000000000000008152600401611bdf90612f43565b60405180910390fd5b611bf181611725565b15611c31576040517f08c379a0000000000000000000000000000000000000000000000000000000008152600401611c2890612faf565b60405180910390fd5b611c3d60008383611766565b611c4681611725565b15611c86576040517f08c379a0000000000000000000000000000000000000000000000000000000008152600401611c7d90612faf565b60405180910390fd5b6001606860008473ffffffffffffffffffffffffffffffffffffffff1673ffffffffffffffffffffffffffffffffffffffff16815260200190815260200160002060008282540192505081905550816067600083815260200190815260200160002060006101000a81548173ffffffffffffffffffffffffffffffffffffffff021916908373ffffffffffffffffffffffffffffffffffffffff160217905550808273ffffffffffffffffffffffffffffffffffffffff16600073ffffffffffffffffffffffffffffffffffffffff167fddf252ad1be2c89b69c2b068fc378daa952ba7f163c4a11628f55a4df523b3ef60405160405180910390a4611d8e6000838361176b565b5050565b6000604051905090565b600080fd5b600080fd5b60007fffffffff0000000000000000000000000000000000000000000000000000000082169050919050565b611ddb81611da6565b8114611de657600080fd5b50565b600081359050611df881611dd2565b92915050565b600060208284031215611e1457611e13611d9c565b5b6000611e2284828501611de9565b91505092915050565b60008115159050919050565b611e4081611e2b565b82525050565b6000602082019050611e5b6000830184611e37565b92915050565b600081519050919050565b600082825260208201905092915050565b60005b83811015611e9b578082015181840152602081019050611e80565b60008484015250505050565b6000601f19601f8301169050919050565b6000611ec382611e61565b611ecd8185611e6c565b9350611edd818560208601611e7d565b611ee681611ea7565b840191505092915050565b60006020820190508181036000830152611f0b8184611eb8565b905092915050565b6000819050919050565b611f2681611f13565b8114611f3157600080fd5b50565b600081359050611f4381611f1d565b92915050565b600060208284031215611f5f57611f5e611d9c565b5b6000611f6d84828501611f34565b91505092915050565b600073ffffffffffffffffffffffffffffffffffffffff82169050919050565b6000611fa182611f76565b9050919050565b611fb181611f96565b82525050565b6000602082019050611fcc6000830184611fa8565b92915050565b611fdb81611f96565b8114611fe657600080fd5b50565b600081359050611ff881611fd2565b92915050565b6000806040838503121561201557612014611d9c565b5b600061202385828601611fe9565b925050602061203485828601611f34565b9150509250929050565b61204781611f13565b82525050565b6000602082019050612062600083018461203e565b92915050565b60008060006060848603121561208157612080611d9c565b5b600061208f86828701611fe9565b93505060206120a086828701611fe9565b92505060406120b186828701611f34565b9150509250925092565b6000602082840312156120d1576120d0611d9c565b5b60006120df84828501611fe9565b91505092915050565b6120f181611e2b565b81146120fc57600080fd5b50565b60008135905061210e816120e8565b92915050565b6000806040838503121561212b5761212a611d9c565b5b600061213985828601611fe9565b925050602061214a858286016120ff565b9150509250929050565b600080fd5b600080fd5b7f4e487b7100000000000000000000000000000000000000000000000000000000600052604160045260246000fd5b61219682611ea7565b810181811067ffffffffffffffff821117156121b5576121b461215e565b5b80604052505050565b60006121c8611d92565b90506121d4828261218d565b919050565b600067ffffffffffffffff8211156121f4576121f361215e565b5b6121fd82611ea7565b9050602081019050919050565b82818337600083830152505050565b600061222c612227846121d9565b6121be565b90508281526020810184848401111561224857612247612159565b5b61225384828561220a565b509392505050565b600082601f8301126122705761226f612154565b5b8135612280848260208601612219565b91505092915050565b600080600080608085870312156122a3576122a2611d9c565b5b60006122b187828801611fe9565b94505060206122c287828801611fe9565b93505060406122d387828801611f34565b925050606085013567ffffffffffffffff8111156122f4576122f3611da1565b5b6123008782880161225b565b91505092959194509250565b6000806040838503121561232357612322611d9c565b5b600061233185828601611fe9565b925050602061234285828601611fe9565b9150509250929050565b7f4e487b7100000000000000000000000000000000000000000000000000000000600052602260045260246000fd5b6000600282049050600182168061239357607f821691505b6020821081036123a6576123a561234c565b5b50919050565b7f4552433732313a20617070726f76616c20746f2063757272656e74206f776e6560008201527f7200000000000000000000000000000000000000000000000000000000000000602082015250565b6000612408602183611e6c565b9150612413826123ac565b604082019050919050565b60006020820190508181036000830152612437816123fb565b9050919050565b7f4552433732313a20617070726f76652063616c6c6572206973206e6f7420746f60008201527f6b656e206f776e6572206f7220617070726f76656420666f7220616c6c000000602082015250565b600061249a603d83611e6c565b91506124a58261243e565b604082019050919050565b600060208201905081810360008301526124c98161248d565b9050919050565b7f4552433732313a2063616c6c6572206973206e6f7420746f6b656e206f776e6560008201527f72206f7220617070726f76656400000000000000000000000000000000000000602082015250565b600061252c602d83611e6c565b9150612537826124d0565b604082019050919050565b6000602082019050818103600083015261255b8161251f565b9050919050565b7f4552433732313a20696e76616c696420746f6b656e2049440000000000000000600082015250565b6000612598601883611e6c565b91506125a382612562565b602082019050919050565b600060208201905081810360008301526125c78161258b565b9050919050565b7f4552433732313a2061646472657373207a65726f206973206e6f74206120766160008201527f6c6964206f776e65720000000000000000000000000000000000000000000000602082015250565b600061262a602983611e6c565b9150612635826125ce565b604082019050919050565b600060208201905081810360008301526126598161261d565b9050919050565b7f496e697469616c697a61626c653a20636f6e747261637420697320616c72656160008201527f647920696e697469616c697a6564000000000000000000000000000000000000602082015250565b60006126bc602e83611e6c565b91506126c782612660565b604082019050919050565b600060208201905081810360008301526126eb816126af565b9050919050565b6000819050919050565b600060ff82169050919050565b6000819050919050565b600061272e612729612724846126f2565b612709565b6126fc565b9050919050565b61273e81612713565b82525050565b60006020820190506127596000830184612735565b92915050565b600081905092915050565b600061277582611e61565b61277f818561275f565b935061278f818560208601611e7d565b80840191505092915050565b60006127a7828561276a565b91506127b3828461276a565b91508190509392505050565b7f4f776e61626c653a206e6577206f776e657220697320746865207a65726f206160008201527f6464726573730000000000000000000000000000000000000000000000000000602082015250565b600061281b602683611e6c565b9150612826826127bf565b604082019050919050565b6000602082019050818103600083015261284a8161280e565b9050919050565b7f4552433732313a207472616e736665722066726f6d20696e636f72726563742060008201527f6f776e6572000000000000000000000000000000000000000000000000000000602082015250565b60006128ad602583611e6c565b91506128b882612851565b604082019050919050565b600060208201905081810360008301526128dc816128a0565b9050919050565b7f4552433732313a207472616e7366657220746f20746865207a65726f2061646460008201527f7265737300000000000000000000000000000000000000000000000000000000602082015250565b600061293f602483611e6c565b915061294a826128e3565b604082019050919050565b6000602082019050818103600083015261296e81612932565b9050919050565b7f4f776e61626c653a2063616c6c6572206973206e6f7420746865206f776e6572600082015250565b60006129ab602083611e6c565b91506129b682612975565b602082019050919050565b600060208201905081810360008301526129da8161299e565b9050919050565b7f496e697469616c697a61626c653a20636f6e7472616374206973206e6f74206960008201527f6e697469616c697a696e67000000000000000000000000000000000000000000602082015250565b6000612a3d602b83611e6c565b9150612a48826129e1565b604082019050919050565b60006020820190508181036000830152612a6c81612a30565b9050919050565b7f4552433732313a20617070726f766520746f2063616c6c657200000000000000600082015250565b6000612aa9601983611e6c565b9150612ab482612a73565b602082019050919050565b60006020820190508181036000830152612ad881612a9c565b9050919050565b7f4552433732313a207472616e7366657220746f206e6f6e20455243373231526560008201527f63656976657220696d706c656d656e7465720000000000000000000000000000602082015250565b6000612b3b603283611e6c565b9150612b4682612adf565b604082019050919050565b60006020820190508181036000830152612b6a81612b2e565b9050919050565b7f4e487b7100000000000000000000000000000000000000000000000000000000600052601260045260246000fd5b60008190508160005260206000209050919050565b60006020601f8301049050919050565b600082821b905092915050565b600060088302612c027fffffffffffffffffffffffffffffffffffffffffffffffffffffffffffffffff82612bc5565b612c0c8683612bc5565b95508019841693508086168417925050509392505050565b6000612c3f612c3a612c3584611f13565b612709565b611f13565b9050919050565b6000819050919050565b612c5983612c24565b612c6d612c6582612c46565b848454612bd2565b825550505050565b600090565b612c82612c75565b612c8d818484612c50565b505050565b5b81811015612cb157612ca6600082612c7a565b600181019050612c93565b5050565b601f821115612cf657612cc781612ba0565b612cd084612bb5565b81016020851015612cdf578190505b612cf3612ceb85612bb5565b830182612c92565b50505b505050565b600082821c905092915050565b6000612d1960001984600802612cfb565b1980831691505092915050565b6000612d328383612d08565b9150826002028217905092915050565b612d4b82611e61565b67ffffffffffffffff811115612d6457612d6361215e565b5b612d6e825461237b565b612d79828285612cb5565b600060209050601f831160018114612dac5760008415612d9a578287015190505b612da48582612d26565b865550612e0c565b601f198416612dba86612ba0565b60005b82811015612de257848901518255600182019150602085019450602081019050612dbd565b86831015612dff5784890151612dfb601f891682612d08565b8355505b6001600288020188555050505b505050505050565b600081519050919050565b600082825260208201905092915050565b6000612e3b82612e14565b612e458185612e1f565b9350612e55818560208601611e7d565b612e5e81611ea7565b840191505092915050565b6000608082019050612e7e6000830187611fa8565b612e8b6020830186611fa8565b612e98604083018561203e565b8181036060830152612eaa8184612e30565b905095945050505050565b600081519050612ec481611dd2565b92915050565b600060208284031215612ee057612edf611d9c565b5b6000612eee84828501612eb5565b91505092915050565b7f4552433732313a206d696e7420746f20746865207a65726f2061646472657373600082015250565b6000612f2d602083611e6c565b9150612f3882612ef7565b602082019050919050565b60006020820190508181036000830152612f5c81612f20565b9050919050565b7f4552433732313a20746f6b656e20616c7265616479206d696e74656400000000600082015250565b6000612f99601c83611e6c565b9150612fa482612f63565b602082019050919050565b60006020820190508181036000830152612fc881612f8c565b905091905056fea26469706673582212206f0b46b5a115231b42d15ef686de4da7961b18441cdfaff8d8c92ad48d9fc05e64736f6c63430008110033",
  "linkReferences": {},
  "deployedLinkReferences": {}
}