{
  "_format": "hh-sol-artifact-1",
  "contractName": "Minter",
  "sourceName": "contracts/Minter.sol",
  "abi": [
    {
      "inputs": [
        {
          "internalType": "address",
          "name": "w1",
          "type": "address"
        },
        {
          "internalType": "address",
          "name": "w2",
          "type": "address"
        },
        {
          "internalType": "uint256",
          "name": "mperc20",
          "type": "uint256"
        },
        {
          "internalType": "uint256",
          "name": "mp",
          "type": "uint256"
        }
      ],
      "stateMutability": "nonpayable",
      "type": "constructor"
    },
    {
      "inputs": [
        {
          "internalType": "bool",
          "name": "ERC20Sel",
          "type": "bool"
        },
        {
          "internalType": "uint256",
          "name": "nummint",
          "type": "uint256"
        }
      ],
      "name": "mint",
      "outputs": [],
      "stateMutability": "payable",
      "type": "function"
    },
    {
      "inputs": [],
      "name": "minter",
      "outputs": [
        {
          "internalType": "address",
          "name": "",
          "type": "address"
        }
      ],
      "stateMutability": "view",
      "type": "function"
    },
    {
      "inputs": [],
      "name": "mintprice",
      "outputs": [
        {
          "internalType": "uint256",
          "name": "",
          "type": "uint256"
        }
      ],
      "stateMutability": "view",
      "type": "function"
    },
    {
      "inputs": [],
      "name": "mintpriceerc20",
      "outputs": [
        {
          "internalType": "uint256",
          "name": "",
          "type": "uint256"
        }
      ],
      "stateMutability": "view",
      "type": "function"
    },
    {
      "inputs": [],
      "name": "paytok",
      "outputs": [
        {
          "internalType": "address",
          "name": "",
          "type": "address"
        }
      ],
      "stateMutability": "view",
      "type": "function"
    },
    {
      "inputs": [
        {
          "internalType": "address",
          "name": "m2",
          "type": "address"
        }
      ],
      "name": "setminter",
      "outputs": [],
      "stateMutability": "nonpayable",
      "type": "function"
    },
    {
      "inputs": [
        {
          "internalType": "uint256",
          "name": "newprice",
          "type": "uint256"
        }
      ],
      "name": "setmintprice",
      "outputs": [],
      "stateMutability": "nonpayable",
      "type": "function"
    },
    {
      "inputs": [
        {
          "internalType": "uint256",
          "name": "newprice",
          "type": "uint256"
        }
      ],
      "name": "setmintpriceerc20",
      "outputs": [],
      "stateMutability": "nonpayable",
      "type": "function"
    },
    {
      "inputs": [
        {
          "internalType": "address",
          "name": "w1",
          "type": "address"
        },
        {
          "internalType": "address",
          "name": "w2",
          "type": "address"
        }
      ],
      "name": "setwallets",
      "outputs": [],
      "stateMutability": "nonpayable",
      "type": "function"
    },
    {
      "inputs": [
        {
          "internalType": "address",
          "name": "newowner",
          "type": "address"
        }
      ],
      "name": "transfertokenownership",
      "outputs": [],
      "stateMutability": "nonpayable",
      "type": "function"
    },
    {
      "inputs": [],
      "name": "wallet1",
      "outputs": [
        {
          "internalType": "address",
          "name": "",
          "type": "address"
        }
      ],
      "stateMutability": "view",
      "type": "function"
    },
    {
      "inputs": [],
      "name": "wallet2",
      "outputs": [
        {
          "internalType": "address",
          "name": "",
          "type": "address"
        }
      ],
      "stateMutability": "view",
      "type": "function"
    },
    {
      "inputs": [],
      "name": "withdraw",
      "outputs": [],
      "stateMutability": "nonpayable",
      "type": "function"
    }
  ],
  "bytecode": "0x60806040523480156200001157600080fd5b506040516200157038038062001570833981810160405281019062000037919062000175565b836000806101000a81548173ffffffffffffffffffffffffffffffffffffffff021916908373ffffffffffffffffffffffffffffffffffffffff16021790555082600160006101000a81548173ffffffffffffffffffffffffffffffffffffffff021916908373ffffffffffffffffffffffffffffffffffffffff160217905550816003819055508060048190555050505050620001e7565b600080fd5b600073ffffffffffffffffffffffffffffffffffffffff82169050919050565b60006200010282620000d5565b9050919050565b6200011481620000f5565b81146200012057600080fd5b50565b600081519050620001348162000109565b92915050565b6000819050919050565b6200014f816200013a565b81146200015b57600080fd5b50565b6000815190506200016f8162000144565b92915050565b60008060008060808587031215620001925762000191620000d0565b5b6000620001a28782880162000123565b9450506020620001b58782880162000123565b9350506040620001c8878288016200015e565b9250506060620001db878288016200015e565b91505092959194509250565b61137980620001f76000396000f3fe6080604052600436106100c25760003560e01c80639e96fb281161007f578063b87eb3db11610059578063b87eb3db14610230578063dfefc77614610259578063e1ee676914610275578063e34762661461029e576100c2565b80639e96fb28146101b3578063a5f030ac146101dc578063a9c2fe7d14610207576100c2565b806307546172146100c75780630b8d0a28146100f25780631a026c961461011d5780633ccfd60b14610148578063400119fc1461015f57806388eab67614610188575b600080fd5b3480156100d357600080fd5b506100dc6102c9565b6040516100e99190610eea565b60405180910390f35b3480156100fe57600080fd5b506101076102ef565b6040516101149190610eea565b60405180910390f35b34801561012957600080fd5b50610132610315565b60405161013f9190610eea565b60405180910390f35b34801561015457600080fd5b5061015d610339565b005b34801561016b57600080fd5b5061018660048036038101906101819190610f36565b610662565b005b34801561019457600080fd5b5061019d6107d8565b6040516101aa9190610f7c565b60405180910390f35b3480156101bf57600080fd5b506101da60048036038101906101d59190610f36565b6107de565b005b3480156101e857600080fd5b506101f1610908565b6040516101fe9190610eea565b60405180910390f35b34801561021357600080fd5b5061022e60048036038101906102299190610fc3565b61092e565b005b34801561023c57600080fd5b5061025760048036038101906102529190610ff0565b610a1e565b005b610273600480360381019061026e9190611068565b610b89565b005b34801561028157600080fd5b5061029c60048036038101906102979190610fc3565b610db3565b005b3480156102aa57600080fd5b506102b3610ea3565b6040516102c09190610f7c565b60405180910390f35b600560009054906101000a900473ffffffffffffffffffffffffffffffffffffffff1681565b600160009054906101000a900473ffffffffffffffffffffffffffffffffffffffff1681565b60008054906101000a900473ffffffffffffffffffffffffffffffffffffffff1681565b60008054906101000a900473ffffffffffffffffffffffffffffffffffffffff1673ffffffffffffffffffffffffffffffffffffffff163373ffffffffffffffffffffffffffffffffffffffff1614806103e05750600160009054906101000a900473ffffffffffffffffffffffffffffffffffffffff1673ffffffffffffffffffffffffffffffffffffffff163373ffffffffffffffffffffffffffffffffffffffff16145b61041f576040517f08c379a000000000000000000000000000000000000000000000000000000000815260040161041690611105565b60405180910390fd5b6000600260009054906101000a900473ffffffffffffffffffffffffffffffffffffffff1673ffffffffffffffffffffffffffffffffffffffff166370a08231306040518263ffffffff1660e01b815260040161047c9190610eea565b602060405180830381865afa158015610499573d6000803e3d6000fd5b505050506040513d601f19601f820116820180604052508101906104bd919061113a565b9050600260009054906101000a900473ffffffffffffffffffffffffffffffffffffffff1673ffffffffffffffffffffffffffffffffffffffff166323b872dd3060008054906101000a900473ffffffffffffffffffffffffffffffffffffffff1660028561052c91906111c5565b6040518463ffffffff1660e01b815260040161054a939291906111f6565b6020604051808303816000875af1158015610569573d6000803e3d6000fd5b505050506040513d601f19601f8201168201806040525081019061058d9190611242565b50600260009054906101000a900473ffffffffffffffffffffffffffffffffffffffff1673ffffffffffffffffffffffffffffffffffffffff166323b872dd30600160009054906101000a900473ffffffffffffffffffffffffffffffffffffffff166002856105fd91906111c5565b6040518463ffffffff1660e01b815260040161061b939291906111f6565b6020604051808303816000875af115801561063a573d6000803e3d6000fd5b505050506040513d601f19601f8201168201806040525081019061065e9190611242565b5050565b60008054906101000a900473ffffffffffffffffffffffffffffffffffffffff1673ffffffffffffffffffffffffffffffffffffffff163373ffffffffffffffffffffffffffffffffffffffff1614806107095750600160009054906101000a900473ffffffffffffffffffffffffffffffffffffffff1673ffffffffffffffffffffffffffffffffffffffff163373ffffffffffffffffffffffffffffffffffffffff16145b610748576040517f08c379a000000000000000000000000000000000000000000000000000000000815260040161073f90611105565b60405180910390fd5b600560009054906101000a900473ffffffffffffffffffffffffffffffffffffffff1673ffffffffffffffffffffffffffffffffffffffff1663f2fde38b826040518263ffffffff1660e01b81526004016107a39190610eea565b600060405180830381600087803b1580156107bd57600080fd5b505af11580156107d1573d6000803e3d6000fd5b5050505050565b60045481565b60008054906101000a900473ffffffffffffffffffffffffffffffffffffffff1673ffffffffffffffffffffffffffffffffffffffff163373ffffffffffffffffffffffffffffffffffffffff1614806108855750600160009054906101000a900473ffffffffffffffffffffffffffffffffffffffff1673ffffffffffffffffffffffffffffffffffffffff163373ffffffffffffffffffffffffffffffffffffffff16145b6108c4576040517f08c379a00000000000000000000000000000000000000000000000000000000081526004016108bb90611105565b60405180910390fd5b80600560006101000a81548173ffffffffffffffffffffffffffffffffffffffff021916908373ffffffffffffffffffffffffffffffffffffffff16021790555050565b600260009054906101000a900473ffffffffffffffffffffffffffffffffffffffff1681565b60008054906101000a900473ffffffffffffffffffffffffffffffffffffffff1673ffffffffffffffffffffffffffffffffffffffff163373ffffffffffffffffffffffffffffffffffffffff1614806109d55750600160009054906101000a900473ffffffffffffffffffffffffffffffffffffffff1673ffffffffffffffffffffffffffffffffffffffff163373ffffffffffffffffffffffffffffffffffffffff16145b610a14576040517f08c379a0000000000000000000000000000000000000000000000000000000008152600401610a0b90611105565b60405180910390fd5b8060048190555050565b60008054906101000a900473ffffffffffffffffffffffffffffffffffffffff1673ffffffffffffffffffffffffffffffffffffffff163373ffffffffffffffffffffffffffffffffffffffff161480610ac55750600160009054906101000a900473ffffffffffffffffffffffffffffffffffffffff1673ffffffffffffffffffffffffffffffffffffffff163373ffffffffffffffffffffffffffffffffffffffff16145b610b04576040517f08c379a0000000000000000000000000000000000000000000000000000000008152600401610afb90611105565b60405180910390fd5b816000806101000a81548173ffffffffffffffffffffffffffffffffffffffff021916908373ffffffffffffffffffffffffffffffffffffffff16021790555080600160006101000a81548173ffffffffffffffffffffffffffffffffffffffff021916908373ffffffffffffffffffffffffffffffffffffffff1602179055505050565b8115610cd157600260009054906101000a900473ffffffffffffffffffffffffffffffffffffffff1673ffffffffffffffffffffffffffffffffffffffff166323b872dd333084600354610bdd919061126f565b6040518463ffffffff1660e01b8152600401610bfb939291906111f6565b6020604051808303816000875af1158015610c1a573d6000803e3d6000fd5b505050506040513d601f19601f82011682018060405250810190610c3e9190611242565b50600560009054906101000a900473ffffffffffffffffffffffffffffffffffffffff1673ffffffffffffffffffffffffffffffffffffffff166340d097c3336040518263ffffffff1660e01b8152600401610c9a9190610eea565b600060405180830381600087803b158015610cb457600080fd5b505af1158015610cc8573d6000803e3d6000fd5b50505050610daf565b80600454610cdf919061126f565b341015610d21576040517f08c379a0000000000000000000000000000000000000000000000000000000008152600401610d1890611323565b60405180910390fd5b600560009054906101000a900473ffffffffffffffffffffffffffffffffffffffff1673ffffffffffffffffffffffffffffffffffffffff166340d097c3336040518263ffffffff1660e01b8152600401610d7c9190610eea565b600060405180830381600087803b158015610d9657600080fd5b505af1158015610daa573d6000803e3d6000fd5b505050505b5050565b60008054906101000a900473ffffffffffffffffffffffffffffffffffffffff1673ffffffffffffffffffffffffffffffffffffffff163373ffffffffffffffffffffffffffffffffffffffff161480610e5a5750600160009054906101000a900473ffffffffffffffffffffffffffffffffffffffff1673ffffffffffffffffffffffffffffffffffffffff163373ffffffffffffffffffffffffffffffffffffffff16145b610e99576040517f08c379a0000000000000000000000000000000000000000000000000000000008152600401610e9090611105565b60405180910390fd5b8060038190555050565b60035481565b600073ffffffffffffffffffffffffffffffffffffffff82169050919050565b6000610ed482610ea9565b9050919050565b610ee481610ec9565b82525050565b6000602082019050610eff6000830184610edb565b92915050565b600080fd5b610f1381610ec9565b8114610f1e57600080fd5b50565b600081359050610f3081610f0a565b92915050565b600060208284031215610f4c57610f4b610f05565b5b6000610f5a84828501610f21565b91505092915050565b6000819050919050565b610f7681610f63565b82525050565b6000602082019050610f916000830184610f6d565b92915050565b610fa081610f63565b8114610fab57600080fd5b50565b600081359050610fbd81610f97565b92915050565b600060208284031215610fd957610fd8610f05565b5b6000610fe784828501610fae565b91505092915050565b6000806040838503121561100757611006610f05565b5b600061101585828601610f21565b925050602061102685828601610f21565b9150509250929050565b60008115159050919050565b61104581611030565b811461105057600080fd5b50565b6000813590506110628161103c565b92915050565b6000806040838503121561107f5761107e610f05565b5b600061108d85828601611053565b925050602061109e85828601610fae565b9150509250929050565b600082825260208201905092915050565b7f4e6f7420616e20617574686f72697a65642077616c6c65740000000000000000600082015250565b60006110ef6018836110a8565b91506110fa826110b9565b602082019050919050565b6000602082019050818103600083015261111e816110e2565b9050919050565b60008151905061113481610f97565b92915050565b6000602082840312156111505761114f610f05565b5b600061115e84828501611125565b91505092915050565b7f4e487b7100000000000000000000000000000000000000000000000000000000600052601260045260246000fd5b7f4e487b7100000000000000000000000000000000000000000000000000000000600052601160045260246000fd5b60006111d082610f63565b91506111db83610f63565b9250826111eb576111ea611167565b5b828204905092915050565b600060608201905061120b6000830186610edb565b6112186020830185610edb565b6112256040830184610f6d565b949350505050565b60008151905061123c8161103c565b92915050565b60006020828403121561125857611257610f05565b5b60006112668482850161122d565b91505092915050565b600061127a82610f63565b915061128583610f63565b925082820261129381610f63565b915082820484148315176112aa576112a9611196565b5b5092915050565b7f4e6f7420656e6f7567682045544820746f206d696e742c2063686f6f7365204560008201527f52433230206d696e74696e67206f7220676574206d6f72652045544800000000602082015250565b600061130d603c836110a8565b9150611318826112b1565b604082019050919050565b6000602082019050818103600083015261133c81611300565b905091905056fea2646970667358221220e0df280759c9d6792efbdb57e324e45963f04513c642779012f44a76686d348864736f6c63430008110033",
  "linkReferences": {},
  "deployedLinkReferences": {}
}